{
  "contractName": "Hamid",
  "abi": [
    {
      "inputs": [],
      "stateMutability": "nonpayable",
      "type": "constructor"
    },
    {
      "anonymous": false,
      "inputs": [
        {
          "indexed": true,
          "internalType": "address",
          "name": "owner",
          "type": "address"
        },
        {
          "indexed": true,
          "internalType": "address",
          "name": "spender",
          "type": "address"
        },
        {
          "indexed": false,
          "internalType": "uint256",
          "name": "value",
          "type": "uint256"
        }
      ],
      "name": "Approval",
      "type": "event"
    },
    {
      "anonymous": false,
      "inputs": [
        {
          "indexed": true,
          "internalType": "address",
          "name": "from",
          "type": "address"
        },
        {
          "indexed": true,
          "internalType": "address",
          "name": "to",
          "type": "address"
        },
        {
          "indexed": false,
          "internalType": "uint256",
          "name": "value",
          "type": "uint256"
        }
      ],
      "name": "Transfer",
      "type": "event"
    },
    {
      "inputs": [],
      "name": "decimals",
      "outputs": [
        {
          "internalType": "uint256",
          "name": "",
          "type": "uint256"
        }
      ],
      "stateMutability": "view",
      "type": "function"
    },
    {
      "inputs": [],
      "name": "name",
      "outputs": [
        {
          "internalType": "string",
          "name": "",
          "type": "string"
        }
      ],
      "stateMutability": "view",
      "type": "function"
    },
    {
      "inputs": [],
      "name": "owner",
      "outputs": [
        {
          "internalType": "address",
          "name": "",
          "type": "address"
        }
      ],
      "stateMutability": "view",
      "type": "function"
    },
    {
      "inputs": [],
      "name": "symbol",
      "outputs": [
        {
          "internalType": "string",
          "name": "",
          "type": "string"
        }
      ],
      "stateMutability": "view",
      "type": "function"
    },
    {
      "stateMutability": "payable",
      "type": "receive"
    },
    {
      "inputs": [
        {
          "internalType": "uint256",
          "name": "addAmount",
          "type": "uint256"
        }
      ],
      "name": "mint",
      "outputs": [
        {
          "internalType": "uint256",
          "name": "",
          "type": "uint256"
        }
      ],
      "stateMutability": "nonpayable",
      "type": "function"
    },
    {
      "inputs": [
        {
          "internalType": "address",
          "name": "recipient",
          "type": "address"
        },
        {
          "internalType": "uint256",
          "name": "amount",
          "type": "uint256"
        }
      ],
      "name": "transfer",
      "outputs": [
        {
          "internalType": "bool",
          "name": "",
          "type": "bool"
        }
      ],
      "stateMutability": "nonpayable",
      "type": "function"
    },
    {
      "inputs": [
        {
          "internalType": "address",
          "name": "spender",
          "type": "address"
        },
        {
          "internalType": "uint256",
          "name": "amount",
          "type": "uint256"
        }
      ],
      "name": "approve",
      "outputs": [
        {
          "internalType": "bool",
          "name": "",
          "type": "bool"
        }
      ],
      "stateMutability": "nonpayable",
      "type": "function"
    },
    {
      "inputs": [
        {
          "internalType": "address",
          "name": "tokenOwner",
          "type": "address"
        },
        {
          "internalType": "address",
          "name": "recipient",
          "type": "address"
        },
        {
          "internalType": "uint256",
          "name": "amount",
          "type": "uint256"
        }
      ],
      "name": "transferFrom",
      "outputs": [
        {
          "internalType": "bool",
          "name": "",
          "type": "bool"
        }
      ],
      "stateMutability": "nonpayable",
      "type": "function"
    },
    {
      "inputs": [],
      "name": "totalSupply",
      "outputs": [
        {
          "internalType": "uint256",
          "name": "",
          "type": "uint256"
        }
      ],
      "stateMutability": "view",
      "type": "function"
    },
    {
      "inputs": [],
      "name": "circulatingSupply",
      "outputs": [
        {
          "internalType": "uint256",
          "name": "",
          "type": "uint256"
        }
      ],
      "stateMutability": "view",
      "type": "function"
    },
    {
      "inputs": [
        {
          "internalType": "address",
          "name": "account",
          "type": "address"
        }
      ],
      "name": "balanceOf",
      "outputs": [
        {
          "internalType": "uint256",
          "name": "",
          "type": "uint256"
        }
      ],
      "stateMutability": "view",
      "type": "function"
    },
    {
      "inputs": [
        {
          "internalType": "address",
          "name": "tokenOwner",
          "type": "address"
        },
        {
          "internalType": "address",
          "name": "spender",
          "type": "address"
        }
      ],
      "name": "allowance",
      "outputs": [
        {
          "internalType": "uint256",
          "name": "",
          "type": "uint256"
        }
      ],
      "stateMutability": "view",
      "type": "function"
    },
    {
      "inputs": [],
      "name": "viewPrice",
      "outputs": [
        {
          "internalType": "uint256",
          "name": "",
          "type": "uint256"
        },
        {
          "internalType": "string",
          "name": "",
          "type": "string"
        }
      ],
      "stateMutability": "view",
      "type": "function"
    },
    {
      "inputs": [
        {
          "internalType": "uint256",
          "name": "newPrice",
          "type": "uint256"
        }
      ],
      "name": "setPrice",
      "outputs": [
        {
          "internalType": "uint256",
          "name": "",
          "type": "uint256"
        }
      ],
      "stateMutability": "nonpayable",
      "type": "function"
    },
    {
      "inputs": [],
      "name": "buyToken",
      "outputs": [
        {
          "internalType": "uint256",
          "name": "",
          "type": "uint256"
        },
        {
          "internalType": "string",
          "name": "",
          "type": "string"
        }
      ],
      "stateMutability": "payable",
      "type": "function"
    }
  ],
  "bytecode": "0x6080604052662386f26fc10000600b553480156200001c57600080fd5b506040518060400160405280600b81526020017f48616d69642d544f4b454e000000000000000000000000000000000000000000815250600190805190602001906200006a9291906200026e565b506040518060400160405280600381526020017f484d44000000000000000000000000000000000000000000000000000000000081525060029080519060200190620000b89291906200026e565b506012600381905550336000806101000a81548173ffffffffffffffffffffffffffffffffffffffff021916908373ffffffffffffffffffffffffffffffffffffffff1602179055504260078190555062278d006007546200011b91906200034c565b600881905550600354600a62000132919062000404565b633b9aca0062000143919062000541565b600581905550600354600a6200015a919062000404565b6103e862000169919062000541565b600681905550600554600481905550600454600960008060009054906101000a900473ffffffffffffffffffffffffffffffffffffffff1673ffffffffffffffffffffffffffffffffffffffff1673ffffffffffffffffffffffffffffffffffffffff1681526020019081526020016000208190555060008054906101000a900473ffffffffffffffffffffffffffffffffffffffff1673ffffffffffffffffffffffffffffffffffffffff163073ffffffffffffffffffffffffffffffffffffffff167fddf252ad1be2c89b69c2b068fc378daa952ba7f163c4a11628f55a4df523b3ef6004546040516200026091906200032f565b60405180910390a36200064d565b8280546200027c90620005ac565b90600052602060002090601f016020900481019282620002a05760008555620002ec565b82601f10620002bb57805160ff1916838001178555620002ec565b82800160010185558215620002ec579182015b82811115620002eb578251825591602001919060010190620002ce565b5b509050620002fb9190620002ff565b5090565b5b808211156200031a57600081600090555060010162000300565b5090565b6200032981620005a2565b82525050565b60006020820190506200034660008301846200031e565b92915050565b60006200035982620005a2565b91506200036683620005a2565b9250827fffffffffffffffffffffffffffffffffffffffffffffffffffffffffffffffff038211156200039e576200039d620005e2565b5b828201905092915050565b6000808291508390505b6001851115620003fb57808604811115620003d357620003d2620005e2565b5b6001851615620003e35780820291505b8081029050620003f38562000640565b9450620003b3565b94509492505050565b60006200041182620005a2565b91506200041e83620005a2565b92506200044d7fffffffffffffffffffffffffffffffffffffffffffffffffffffffffffffffff848462000455565b905092915050565b6000826200046757600190506200053a565b816200047757600090506200053a565b81600181146200049057600281146200049b57620004d1565b60019150506200053a565b60ff841115620004b057620004af620005e2565b5b8360020a915084821115620004ca57620004c9620005e2565b5b506200053a565b5060208310610133831016604e8410600b84101617156200050b5782820a905083811115620005055762000504620005e2565b5b6200053a565b6200051a8484846001620003a9565b92509050818404811115620005345762000533620005e2565b5b81810290505b9392505050565b60006200054e82620005a2565b91506200055b83620005a2565b9250817fffffffffffffffffffffffffffffffffffffffffffffffffffffffffffffffff0483118215151615620005975762000596620005e2565b5b828202905092915050565b6000819050919050565b60006002820490506001821680620005c557607f821691505b60208210811415620005dc57620005db62000611565b5b50919050565b7f4e487b7100000000000000000000000000000000000000000000000000000000600052601160045260246000fd5b7f4e487b7100000000000000000000000000000000000000000000000000000000600052602260045260246000fd5b60008160011c9050919050565b611b51806200065d6000396000f3fe6080604052600436106100ec5760003560e01c806391b7f5ed1161008a578063a482171911610059578063a482171914610335578063a9059cbb14610354578063d7dcdcec14610391578063dd62ed3e146103bd576100fd565b806391b7f5ed146102655780639358928b146102a257806395d89b41146102cd578063a0712d68146102f8576100fd565b806323b872dd116100c657806323b872dd14610195578063313ce567146101d257806370a08231146101fd5780638da5cb5b1461023a576100fd565b806306fdde0314610102578063095ea7b31461012d57806318160ddd1461016a576100fd565b366100fd576100f96103fa565b5050005b600080fd5b34801561010e57600080fd5b5061011761056f565b604051610124919061169d565b60405180910390f35b34801561013957600080fd5b50610154600480360381019061014f9190611284565b6105fd565b6040516101619190611682565b60405180910390f35b34801561017657600080fd5b5061017f6107d4565b60405161018c91906117ff565b60405180910390f35b3480156101a157600080fd5b506101bc60048036038101906101b79190611235565b6107de565b6040516101c99190611682565b60405180910390f35b3480156101de57600080fd5b506101e7610b29565b6040516101f491906117ff565b60405180910390f35b34801561020957600080fd5b50610224600480360381019061021f91906111d0565b610b2f565b60405161023191906117ff565b60405180910390f35b34801561024657600080fd5b5061024f610b78565b60405161025c9190611667565b60405180910390f35b34801561027157600080fd5b5061028c600480360381019061028791906112c0565b610b9c565b60405161029991906117ff565b60405180910390f35b3480156102ae57600080fd5b506102b7610baf565b6040516102c491906117ff565b60405180910390f35b3480156102d957600080fd5b506102e2610bb9565b6040516102ef919061169d565b60405180910390f35b34801561030457600080fd5b5061031f600480360381019061031a91906112c0565b610c47565b60405161032c91906117ff565b60405180910390f35b61033d6103fa565b60405161034b92919061181a565b60405180910390f35b34801561036057600080fd5b5061037b60048036038101906103769190611284565b610da2565b6040516103889190611682565b60405180910390f35b34801561039d57600080fd5b506103a66110da565b6040516103b492919061181a565b60405180910390f35b3480156103c957600080fd5b506103e460048036038101906103df91906111f9565b61111f565b6040516103f191906117ff565b60405180910390f35b6000606060003411610441576040517f08c379a00000000000000000000000000000000000000000000000000000000081526004016104389061177f565b60405180910390fd5b60003490506000600b548261045691906118bc565b9050670de0b6b3a76400008161046c91906118ed565b600960008060009054906101000a900473ffffffffffffffffffffffffffffffffffffffff1673ffffffffffffffffffffffffffffffffffffffff1673ffffffffffffffffffffffffffffffffffffffff16815260200190815260200160002060008282546104db9190611947565b92505081905550670de0b6b3a7640000816104f691906118ed565b600960003373ffffffffffffffffffffffffffffffffffffffff1673ffffffffffffffffffffffffffffffffffffffff16815260200190815260200160002060008282546105449190611866565b9250508190555080604051806060016040528060278152602001611af5602791399350935050509091565b6001805461057c906119f6565b80601f01602080910402602001604051908101604052809291908181526020018280546105a8906119f6565b80156105f55780601f106105ca576101008083540402835291602001916105f5565b820191906000526020600020905b8154815290600101906020018083116105d857829003601f168201915b505050505081565b600080339050600073ffffffffffffffffffffffffffffffffffffffff168173ffffffffffffffffffffffffffffffffffffffff161415610673576040517f08c379a000000000000000000000000000000000000000000000000000000000815260040161066a9061175f565b60405180910390fd5b600073ffffffffffffffffffffffffffffffffffffffff168473ffffffffffffffffffffffffffffffffffffffff1614156106e3576040517f08c379a00000000000000000000000000000000000000000000000000000000081526004016106da906117df565b60405180910390fd5b82600a60008373ffffffffffffffffffffffffffffffffffffffff1673ffffffffffffffffffffffffffffffffffffffff16815260200190815260200160002060008673ffffffffffffffffffffffffffffffffffffffff1673ffffffffffffffffffffffffffffffffffffffff168152602001908152602001600020819055508373ffffffffffffffffffffffffffffffffffffffff168173ffffffffffffffffffffffffffffffffffffffff167f8c5be1e5ebec7d5bd14f71427d1e84f3dd0314c0f7b2291e5b200ac8c7c3b925856040516107c191906117ff565b60405180910390a3600191505092915050565b6000600454905090565b6000803390506000600a60008773ffffffffffffffffffffffffffffffffffffffff1673ffffffffffffffffffffffffffffffffffffffff16815260200190815260200160002060008373ffffffffffffffffffffffffffffffffffffffff1673ffffffffffffffffffffffffffffffffffffffff1681526020019081526020016000205490508381116108a7576040517f08c379a000000000000000000000000000000000000000000000000000000000815260040161089e9061171f565b60405180910390fd5b83816108b39190611947565b905083600960008873ffffffffffffffffffffffffffffffffffffffff1673ffffffffffffffffffffffffffffffffffffffff168152602001908152602001600020546109009190611947565b600960008873ffffffffffffffffffffffffffffffffffffffff1673ffffffffffffffffffffffffffffffffffffffff1681526020019081526020016000208190555083600960008773ffffffffffffffffffffffffffffffffffffffff1673ffffffffffffffffffffffffffffffffffffffff1681526020019081526020016000205461098e9190611866565b600960008773ffffffffffffffffffffffffffffffffffffffff1673ffffffffffffffffffffffffffffffffffffffff168152602001908152602001600020819055508473ffffffffffffffffffffffffffffffffffffffff168673ffffffffffffffffffffffffffffffffffffffff167fddf252ad1be2c89b69c2b068fc378daa952ba7f163c4a11628f55a4df523b3ef86604051610a2e91906117ff565b60405180910390a380600a60008873ffffffffffffffffffffffffffffffffffffffff1673ffffffffffffffffffffffffffffffffffffffff16815260200190815260200160002060008473ffffffffffffffffffffffffffffffffffffffff1673ffffffffffffffffffffffffffffffffffffffff168152602001908152602001600020819055508173ffffffffffffffffffffffffffffffffffffffff168673ffffffffffffffffffffffffffffffffffffffff167f8c5be1e5ebec7d5bd14f71427d1e84f3dd0314c0f7b2291e5b200ac8c7c3b92586604051610b1491906117ff565b60405180910390a36001925050509392505050565b60035481565b6000600960008373ffffffffffffffffffffffffffffffffffffffff1673ffffffffffffffffffffffffffffffffffffffff168152602001908152602001600020549050919050565b60008054906101000a900473ffffffffffffffffffffffffffffffffffffffff1681565b600081600b81905550600b549050919050565b6000600654905090565b60028054610bc6906119f6565b80601f0160208091040260200160405190810160405280929190818152602001828054610bf2906119f6565b8015610c3f5780601f10610c1457610100808354040283529160200191610c3f565b820191906000526020600020905b815481529060010190602001808311610c2257829003601f168201915b505050505081565b60008060009054906101000a900473ffffffffffffffffffffffffffffffffffffffff1673ffffffffffffffffffffffffffffffffffffffff163373ffffffffffffffffffffffffffffffffffffffff1614610cd8576040517f08c379a0000000000000000000000000000000000000000000000000000000008152600401610ccf9061179f565b60405180910390fd5b60055482600654610ce99190611866565b10610d29576040517f08c379a0000000000000000000000000000000000000000000000000000000008152600401610d20906116df565b60405180910390fd5b81600960003373ffffffffffffffffffffffffffffffffffffffff1673ffffffffffffffffffffffffffffffffffffffff1681526020019081526020016000206000828254610d789190611866565b925050819055508160066000828254610d919190611866565b925050819055506006549050919050565b600080339050600073ffffffffffffffffffffffffffffffffffffffff168173ffffffffffffffffffffffffffffffffffffffff161415610e18576040517f08c379a0000000000000000000000000000000000000000000000000000000008152600401610e0f906116ff565b60405180910390fd5b600073ffffffffffffffffffffffffffffffffffffffff168473ffffffffffffffffffffffffffffffffffffffff161415610e88576040517f08c379a0000000000000000000000000000000000000000000000000000000008152600401610e7f9061173f565b60405180910390fd5b82600960008373ffffffffffffffffffffffffffffffffffffffff1673ffffffffffffffffffffffffffffffffffffffff1681526020019081526020016000205411610f09576040517f08c379a0000000000000000000000000000000000000000000000000000000008152600401610f00906117bf565b60405180910390fd5b600854421015610f4e576040517f08c379a0000000000000000000000000000000000000000000000000000000008152600401610f45906116bf565b60405180910390fd5b82600960008373ffffffffffffffffffffffffffffffffffffffff1673ffffffffffffffffffffffffffffffffffffffff16815260200190815260200160002054610f999190611947565b600960008373ffffffffffffffffffffffffffffffffffffffff1673ffffffffffffffffffffffffffffffffffffffff1681526020019081526020016000208190555082600960008673ffffffffffffffffffffffffffffffffffffffff1673ffffffffffffffffffffffffffffffffffffffff168152602001908152602001600020546110279190611866565b600960008673ffffffffffffffffffffffffffffffffffffffff1673ffffffffffffffffffffffffffffffffffffffff168152602001908152602001600020819055508373ffffffffffffffffffffffffffffffffffffffff168173ffffffffffffffffffffffffffffffffffffffff167fddf252ad1be2c89b69c2b068fc378daa952ba7f163c4a11628f55a4df523b3ef856040516110c791906117ff565b60405180910390a3600191505092915050565b60006060600b546040518060400160405280600381526020017f5765690000000000000000000000000000000000000000000000000000000000815250915091509091565b6000600a60008473ffffffffffffffffffffffffffffffffffffffff1673ffffffffffffffffffffffffffffffffffffffff16815260200190815260200160002060008373ffffffffffffffffffffffffffffffffffffffff1673ffffffffffffffffffffffffffffffffffffffff16815260200190815260200160002054905092915050565b6000813590506111b581611ac6565b92915050565b6000813590506111ca81611add565b92915050565b6000602082840312156111e257600080fd5b60006111f0848285016111a6565b91505092915050565b6000806040838503121561120c57600080fd5b600061121a858286016111a6565b925050602061122b858286016111a6565b9150509250929050565b60008060006060848603121561124a57600080fd5b6000611258868287016111a6565b9350506020611269868287016111a6565b925050604061127a868287016111bb565b9150509250925092565b6000806040838503121561129757600080fd5b60006112a5858286016111a6565b92505060206112b6858286016111bb565b9150509250929050565b6000602082840312156112d257600080fd5b60006112e0848285016111bb565b91505092915050565b6112f28161197b565b82525050565b6113018161198d565b82525050565b60006113128261184a565b61131c8185611855565b935061132c8185602086016119c3565b61133581611ab5565b840191505092915050565b600061134d602883611855565b91507f43414e4e4f54205452414e5346455220544f4b454e20554e54494c205448452060008301527f444541444c494e450000000000000000000000000000000000000000000000006020830152604082019050919050565b60006113b3601683611855565b91507f6d696e6974696e67206c696d69742065786365646564000000000000000000006000830152602082019050919050565b60006113f3602a83611855565b91507f20594f5520415245205452414e53464552494e472046524f4d20544845205a4560008301527f524f2041444452455353000000000000000000000000000000000000000000006020830152604082019050919050565b6000611459601b83611855565b91507f5452414e5346455220414d4d4f554e54204953204558434544454400000000006000830152602082019050919050565b6000611499602783611855565b91507f594f5520415245205452414e53464552494e4720544f20544845205a45524f2060008301527f41444452455353000000000000000000000000000000000000000000000000006020830152604082019050919050565b60006114ff601d83611855565b91507f415050524f56452046524f4d20544845205a45524f20414444524553530000006000830152602082019050919050565b600061153f603183611855565b91507f596f752068617665206e6f742073706563696669656420616e7920616d6f756e60008301527f7420666f7220696e766573746d656e742e0000000000000000000000000000006020830152604082019050919050565b60006115a5602083611855565b91507f6f6e6c79206f776e65722063616e2072756e20746869732066756e6374696f6e6000830152602082019050919050565b60006115e5601483611855565b91507f494e53554646494349454e542042414c414e43450000000000000000000000006000830152602082019050919050565b6000611625601b83611855565b91507f415050524f564520544f20544845205a45524f204144445245535300000000006000830152602082019050919050565b611661816119b9565b82525050565b600060208201905061167c60008301846112e9565b92915050565b600060208201905061169760008301846112f8565b92915050565b600060208201905081810360008301526116b78184611307565b905092915050565b600060208201905081810360008301526116d881611340565b9050919050565b600060208201905081810360008301526116f8816113a6565b9050919050565b60006020820190508181036000830152611718816113e6565b9050919050565b600060208201905081810360008301526117388161144c565b9050919050565b600060208201905081810360008301526117588161148c565b9050919050565b60006020820190508181036000830152611778816114f2565b9050919050565b6000602082019050818103600083015261179881611532565b9050919050565b600060208201905081810360008301526117b881611598565b9050919050565b600060208201905081810360008301526117d8816115d8565b9050919050565b600060208201905081810360008301526117f881611618565b9050919050565b60006020820190506118146000830184611658565b92915050565b600060408201905061182f6000830185611658565b81810360208301526118418184611307565b90509392505050565b600081519050919050565b600082825260208201905092915050565b6000611871826119b9565b915061187c836119b9565b9250827fffffffffffffffffffffffffffffffffffffffffffffffffffffffffffffffff038211156118b1576118b0611a28565b5b828201905092915050565b60006118c7826119b9565b91506118d2836119b9565b9250826118e2576118e1611a57565b5b828204905092915050565b60006118f8826119b9565b9150611903836119b9565b9250817fffffffffffffffffffffffffffffffffffffffffffffffffffffffffffffffff048311821515161561193c5761193b611a28565b5b828202905092915050565b6000611952826119b9565b915061195d836119b9565b9250828210156119705761196f611a28565b5b828203905092915050565b600061198682611999565b9050919050565b60008115159050919050565b600073ffffffffffffffffffffffffffffffffffffffff82169050919050565b6000819050919050565b60005b838110156119e15780820151818401526020810190506119c6565b838111156119f0576000848401525b50505050565b60006002820490506001821680611a0e57607f821691505b60208210811415611a2257611a21611a86565b5b50919050565b7f4e487b7100000000000000000000000000000000000000000000000000000000600052601160045260246000fd5b7f4e487b7100000000000000000000000000000000000000000000000000000000600052601260045260246000fd5b7f4e487b7100000000000000000000000000000000000000000000000000000000600052602260045260246000fd5b6000601f19601f8301169050919050565b611acf8161197b565b8114611ada57600080fd5b50565b611ae6816119b9565b8114611af157600080fd5b5056fe484d4420746f6b656e73207472616e7366657272656420746f20796f7572206163636f756e742ea2646970667358221220096380cdfabad0cb1bd2e6ca0a7433c03a7c1082573ab4b5a622499206d801c864736f6c63430008000033",
  "immutableReferences": {},
  "source": "// SPDX-License-Identifier: MIT\r\npragma solidity ^0.8.0;\r\n\r\n//NAME = HAMID MUSTAFA DAHRI\r\n//ROLL NO = PIAIC 71456\r\n\r\ninterface IERC20 {\r\n    function totalSupply() external view returns (uint256);\r\n\r\n    function balanceOf(address account) external view returns (uint256);\r\n\r\n    function transfer(address recipient, uint256 amount)\r\n        external\r\n        returns (bool);\r\n\r\n    function allowance(address owner, address spender)\r\n        external\r\n        view\r\n        returns (uint256);\r\n\r\n    function approve(address spender, uint256 amount) external returns (bool);\r\n\r\n    function transferFrom(\r\n        address sender,\r\n        address recipient,\r\n        uint256 amount\r\n    ) external returns (bool);\r\n\r\n    event Transfer(address indexed from, address indexed to, uint256 value);\r\n    event Approval(\r\n        address indexed owner,\r\n        address indexed spender,\r\n        uint256 value\r\n    );\r\n}\r\n\r\ncontract Hamid is IERC20 {\r\n    address public owner;\r\n    string public name;\r\n    string public symbol;\r\n    uint256 public decimals;\r\n    uint256 private _totalSupply;\r\n    uint256 private _mintTokenLimit;\r\n    uint256 private _circulatingSupply;\r\n    uint256 private Now;\r\n    uint256 private deadline;\r\n\r\n    mapping(address => uint256) private _balances;\r\n    mapping(address => mapping(address => uint256)) private _allowances;\r\n\r\n    constructor() public {\r\n        name = \"Hamid-TOKEN\";\r\n        symbol = \"HMD\";\r\n        decimals = 18;\r\n        owner = msg.sender;\r\n        Now = block.timestamp;\r\n        deadline = Now + (30 * 1 days);\r\n        _mintTokenLimit = 1000000000 * 10**decimals;\r\n        _circulatingSupply = 1000 * 10**decimals;\r\n        _totalSupply = _mintTokenLimit;\r\n        _balances[owner] = _totalSupply;\r\n        emit Transfer(address(this), owner, _totalSupply);\r\n    }\r\n\r\n    modifier onlyOwner() {\r\n        require(msg.sender == owner, \"only owner can run this function\");\r\n        _;\r\n    }\r\n\r\n    function mint(uint256 addAmount) public onlyOwner returns (uint256) {\r\n        require(\r\n            _circulatingSupply + addAmount < _mintTokenLimit,\r\n            \"miniting limit exceded\"\r\n        );\r\n        _balances[msg.sender] += addAmount;\r\n        _circulatingSupply += addAmount;\r\n        return _circulatingSupply;\r\n    }\r\n\r\n    function transfer(address recipient, uint256 amount)\r\n        public\r\n        virtual\r\n        override\r\n        returns (bool)\r\n    {\r\n        address sender = msg.sender;\r\n        require(\r\n            sender != address(0),\r\n            \" YOU ARE TRANSFERING FROM THE ZERO ADDRESS\"\r\n        );\r\n        require(\r\n            recipient != address(0),\r\n            \"YOU ARE TRANSFERING TO THE ZERO ADDRESS\"\r\n        );\r\n        require(_balances[sender] > amount, \"INSUFFICIENT BALANCE\");\r\n        require(\r\n            block.timestamp >= deadline,\r\n            \"CANNOT TRANSFER TOKEN UNTIL THE DEADLINE\"\r\n        );\r\n        _balances[sender] = _balances[sender] - amount;\r\n        _balances[recipient] = _balances[recipient] + amount;\r\n        emit Transfer(sender, recipient, amount);\r\n        return true;\r\n    }\r\n\r\n    function approve(address spender, uint256 amount)\r\n        public\r\n        virtual\r\n        override\r\n        returns (bool)\r\n    {\r\n        address tokenOwner = msg.sender;\r\n        require(tokenOwner != address(0), \"APPROVE FROM THE ZERO ADDRESS\");\r\n        require(spender != address(0), \"APPROVE TO THE ZERO ADDRESS\");\r\n        _allowances[tokenOwner][spender] = amount;\r\n        emit Approval(tokenOwner, spender, amount);\r\n        return true;\r\n    }\r\n\r\n    function transferFrom(\r\n        address tokenOwner,\r\n        address recipient,\r\n        uint256 amount\r\n    ) public virtual override returns (bool) {\r\n        address spender = msg.sender;\r\n        uint256 _allowance = _allowances[tokenOwner][spender];\r\n        require(_allowance > amount, \"TRANSFER AMMOUNT IS EXCEDED\");\r\n        _allowance = _allowance - amount;\r\n        _balances[tokenOwner] = _balances[tokenOwner] - amount;\r\n        _balances[recipient] = _balances[recipient] + amount;\r\n        emit Transfer(tokenOwner, recipient, amount);\r\n        _allowances[tokenOwner][spender] = _allowance;\r\n        emit Approval(tokenOwner, spender, amount);\r\n        return true;\r\n    }\r\n\r\n    function totalSupply() public view override returns (uint256) {\r\n        return _totalSupply;\r\n    }\r\n\r\n    function circulatingSupply() public view returns (uint256) {\r\n        return _circulatingSupply;\r\n    }\r\n\r\n    function balanceOf(address account) public view override returns (uint256) {\r\n        return _balances[account];\r\n    }\r\n\r\n    function allowance(address tokenOwner, address spender)\r\n        public\r\n        view\r\n        virtual\r\n        override\r\n        returns (uint256)\r\n    {\r\n        return _allowances[tokenOwner][spender];\r\n    }\r\n\r\n    uint256 tokenPrice = 1 * 10**16;\r\n\r\n    function viewPrice() public view returns (uint256, string memory) {\r\n        return (tokenPrice, \"Wei\");\r\n    }\r\n\r\n    function setPrice(uint256 newPrice) public returns (uint256) {\r\n        tokenPrice = newPrice;\r\n        return (tokenPrice);\r\n    }\r\n\r\n    function buyToken() public payable returns (uint256, string memory) {\r\n        require(\r\n            msg.value > 0,\r\n            \"You have not specified any amount for investment.\"\r\n        );\r\n        uint256 value = msg.value;\r\n        uint256 tokenQty = value / tokenPrice;\r\n        _balances[owner] -= tokenQty * 1e18;\r\n        _balances[msg.sender] += tokenQty * 1e18;\r\n        return (tokenQty, \"HMD tokens transferred to your account.\");\r\n    }\r\n\r\n    receive() external payable {\r\n        buyToken();\r\n    }\r\n}\r\n",
  "sourcePath": "D:\\work\\Assignment 3B\\contracts\\ERC20.sol",
  "compiler": {
    "name": "solc",
    "version": "0.8.0+commit.c7dfd78e.Emscripten.clang"
  },
  "schemaVersion": "3.4.3",
  "updatedAt": "2021-09-26T10:36:59.130Z",
  "devdoc": {
    "kind": "dev",
    "methods": {},
    "version": 1
  },
  "userdoc": {
    "kind": "user",
    "methods": {},
    "version": 1
  }
}